:100000000C942A000C9447000C9447000C94470071
:100010000C9447000C9447000C9447000C94470044
:100020000C9447000C9447000C9447000C94470034
:100030000C9447000C9447000C9447000C94470024
:100040000C9447000C9447000C9447000C94470014
:100050000C94470011241FBECFE5D8E0DEBFCDBF12
:1000600010E0A0E6B0E0E8EDF5E002C005900D92EA
:10007000A037B107D9F720E0A0E7B0E001C01D929A
:10008000A137B207E1F70E94D4020C94EA020C9463
:1000900000004130B9F58230A1F018F4813031F020
:1000A00008958330C9F0843011F108952AB381E0B6
:1000B00090E002C0880F991F6A95E2F7822B8ABBF5
:1000C000089527B381E090E002C0880F991F6A95D8
:1000D000E2F7822B87BB089524B381E090E002C051
:1000E000880F991F6A95E2F7822B84BB089521B38C
:1000F00081E090E002C0880F991F6A95E2F7822B99
:1001000081BB089541113AC08230A9F018F48130C2
:1001100031F008958330D9F0843029F108952AB35D
:1001200081E090E002C0880F991F6A95E2F7809500
:1001300082238ABB089527B381E090E002C0880F34
:10014000991F6A95E2F78095822387BB089524B3AF
:1001500081E090E002C0880F991F6A95E2F78095D0
:10016000822384BB089521B381E090E002C0880F10
:10017000991F6A95E2F78095822381BB08954130EB
:10018000B9F58230A1F018F4813031F00895833050
:10019000C9F0843011F108952BB381E090E002C0E2
:1001A000880F991F6A95E2F7822B8BBB089528B3BD
:1001B00081E090E002C0880F991F6A95E2F7822BD8
:1001C00088BB089525B381E090E002C0880F991F95
:1001D0006A95E2F7822B85BB089522B381E090E017
:1001E00002C0880F991F6A95E2F7822B82BB08959F
:1001F00041113AC08230A9F018F4813031F00895ED
:100200008330D9F0843029F108952BB381E090E058
:1002100002C0880F991F6A95E2F7809582238BBBF5
:10022000089528B381E090E002C0880F991F6A9575
:10023000E2F78095822388BB089525B381E090E0A2
:1002400002C0880F991F6A95E2F78095822385BBCB
:10025000089522B381E090E002C0880F991F6A954B
:10026000E2F78095822382BB0895823091F018F4E2
:10027000813031F029C08330A9F08430E1F024C00E
:1002800089B390E002C0959587956A95E2F78170F1
:10029000089586B390E002C0959587956A95E2F738
:1002A0008170089583B390E002C0959587956A9513
:1002B000E2F78170089580B390E002C0959587952C
:1002C0006A95E2F78170089580E008951F93CF93B7
:1002D000DF9310E03FC041E060E081E00E94BF009A
:1002E00041E061E081E00E94BF0041E062E081E026
:1002F0000E94BF0041E063E081E00E94BF0040E057
:10030000612F81E00E94BF00C0E021C0D4E0DC0F7B
:100310006D2F81E00E943501811118C08FE39CE9A7
:100320000197F1F700C000006D2F81E00E943501B8
:100330008823D1F3E12FF0E0EE0FFF1FEE0FFF1F38
:10034000E05AFF4FEC0FF11D808108C0CF5FC43031
:10035000E8F21F5F143008F4BECF80E0DF91CF9148
:100360001F910895823059F018F4813031F00895CA
:10037000833039F0843039F008956ABB089567BB43
:10038000089564BB089561BB0895823059F018F454
:10039000813031F00895833039F0843039F0089598
:1003A0006BBB089568BB089565BB089562BB089553
:1003B00041E060E081E00E94490041E061E081E0CD
:1003C0000E94490041E062E081E00E94490041E072
:1003D00063E081E00E94490040E064E081E00E9427
:1003E000490040E065E081E00E94490040E066E0AD
:1003F00081E00E94490040E067E081E00E944900FE
:100400006FEF81E00E94C5010895CF93C82F40E0AF
:1004100065E083E00E94BF0040E064E083E00E946A
:10042000BF006C2F84E00E94C50141E067E083E0DB
:100430000E94BF008FE99FE00197F1F700C0000024
:1004400040E067E083E00E94BF008FE097E2019701
:10045000F1F700C00000CF9108956FEF83E00E9494
:10046000B2016FEF84E00E94B2012FE788E391E0D0
:10047000215080409040E1F700C0000088E30E94D6
:10048000050225E82A95F1F7000088E30E9405029D
:1004900085E88A95F1F700008CE00E94050295E856
:1004A0009A95F1F7000081E00E9405028FE99FE034
:1004B0000197F1F700C0000086E00E940502089550
:1004C000CF93C82F40E065E083E00E94BF0041E089
:1004D00064E083E00E94BF006C2F84E00E94C501AD
:1004E00041E067E083E00E94BF0040E067E083E016
:1004F0000E94BF008FE097E20197F1F700C0000073
:10050000CF9108951F93CF93DF930E94660180934C
:100510007000D0EDD80FDA30C0F70E9460022FEFE4
:1005200089E698E1215080409040E1F700C000004A
:100530000E946601C82F809370008B3231F08D329B
:1005400021F08A3211F08F3299F78C2F0E946002CD
:100550000E9466018093700010ED180F1A30C0F7EA
:100560000E9460020E946601809370008D33D1F773
:100570000E946002CB3219F48D2F810F11C0CD3251
:1005800019F48D2F811B0CC0CA3221F4D19F802D0C
:10059000112406C0CF3231F78D2F612F0E94DE0269
:1005A000DF91CF911F9108950E942D020E94D801E2
:1005B0000E948202805D0E946002FACF991B79E05E
:1005C00004C0991F961708F0961B881F7A95C9F7E3
:0805D00080950895F894FFCF17
:1005D8003738392F3435362A3132332D43303D2BD5
:00000001FF
